:1000000013C037C036C035C034C033C032C031C071
:1000100030C02FC02EC02DC02CC02BC02AC029C07C
:1000200028C027C026C0840011241FBECFE5D4E01D
:10003000DEBFCDBF10E0A0E6B0E0E6E2F1E002C036
:1000400005900D92A037B107D9F720E0A0E7B0E006
:1000500001C01D92A237B207E1F710E0C4E1D0E081
:1000600003C02197FE0157D0C331D107D1F739D052
:1000700058C0C6CFFC01413051F4808121E030E00E
:1000800001C0220F6A95EAF7822B808308954111FF
:100090000DC0208181E090E0AC0102C0440F551FEB
:1000A0006A95E2F7BA016095622360830895FC01C6
:1000B000718360830895FC0180819181C89721F448
:1000C00087B38FEF87BB18BA0895FC01603140F405
:1000D000A081B181E62FF0E0E05AFF4F80818C9340
:1000E000089580E790E0E7DF8EE6E0917000F09100
:1000F000710080832FEF34E39CE02150304090402A
:10010000E1F700C00000F1CF88E390E09093710028
:10011000809370000895EE0FFF1F0590F491E02D7D
:060120000994F894FFCFE2
:100126006E22C7672B6DED26EF6FAFE9C8EACD8D5E
:00000001FF
